:020000040000FA
:0400000007EF00F016
:0A0008005D8201ED1CF004EF1BF017
:1008000000434D442B54454D3D25643E3E3E004340
:100810004D442B52483D25643E3E3E00434D442B03
:100820004C4544006868580068686400686869005E
:1008300068686E0068686F006868750068687800AE
:100840007A58007A64007A69007A6E007A6F007ACA
:1008500075007A78003D000047C0D9FF48C0DAFF34
:10086000DECFF6FFDDCFF7FF0800F550250AD8A44C
:100870003CEF04F03EEF04F035EF0DF047C0D9FF38
:1008800048C0DAFFDE2A000EDD22000E0001636F91
:10089000000E626F62C05BF063C05CF06469656902
:1008A000000EBC6F000EBB6F9CEF04F05B8047C076
:1008B000D9FF48C0DAFFDE2A000EDD229CEF04F0EB
:1008C0005B8257EF04F05B8457EF04F05B8657EFD1
:1008D00004F05B8857EF04F0000EBC6F010EBB6F95
:1008E0009CEF04F047C0D9FF48C0DAFFDECFF6FF27
:1008F000DDCFF7FF0800F5504B6E4C6A4C50000AF4
:10090000D8B485EF04F06CEF04F04B50200AD8B453
:1009100066EF04F0030AD8B469EF04F0080AD8B40B
:1009200063EF04F0060AD8B456EF04F01D0AD8B4F9
:1009300060EF04F06CEF04F0BB51BC11D8B4A3EF2E
:1009400004F0A5EF04F072EF04F05BA0AAEF04F04E
:10095000ACEF04F0ADEF04F05B9247C0D9FF48C0A4
:10096000DAFFDECFF6FFDDCFF7FF0800F5502A0AE9
:10097000D8A4BDEF04F0BFEF04F0E8EF04F047C0E7
:10098000D9FF48C0DAFFDE2A000EDD2249C0D9FFB8
:100990004AC0DAFFDFCF4BF0020EDE26DFCF4CF08D
:1009A000000EDD224BC0D9FF4CC0DAFFDECF62F073
:1009B000DDCF63F063BFE1EF04F0DFEF04F02CEF75
:1009C00005F05B80626D631FD8B0632B2CEF05F0E0
:1009D00047C0D9FF48C0DAFFDECF0AF0DDCF0BF009
:1009E00051EC12F00AC062F00BC063F0FFEF04F0AC
:1009F00047C0D9FF48C0DAFFDE2A000EDD22D00E44
:100A00004B6EFF0E4C6E47C0D9FF48C0DAFFDECFF9
:100A1000F6FFDDCFF7FF0800F5504D6E4E6A4B50E4
:100A20004D264C504E224E500AE10A0E4D5CD8A085
:100A30001CEF05F01FEF05F0010E20EF05F0000E92
:100A40000001BD6FBE6BBD51BE11D8A42AEF05F0E9
:100A50002CEF05F0F8EF04F047C0D9FF48C0DAFFEB
:100A6000DECFF6FFDDCFF7FF0800F5502E0AD8A441
:100A70003CEF05F03EEF05F0BCEF05F0000E656FB2
:100A8000000E646F47C0D9FF48C0DAFFDE2A000EAF
:100A9000DD2247C0D9FF48C0DAFFDECFF6FFDDCF49
:100AA000F7FF0800F5502A0AD8A459EF05F05BEFCC
:100AB00005F078EF05F047C0D9FF48C0DAFFDE2A1D
:100AC000000EDD2249C0D9FF4AC0DAFFDFCF4BF06C
:100AD000020EDE26DFCF4CF0000EDD224BC0D9FF28
:100AE0004CC0DAFFDECF64F0DDCF65F0BCEF05F07F
:100AF00047C0D9FF48C0DAFFDECF0AF0DDCF0BF0E8
:100B000051EC12F00AC064F00BC065F08FEF05F0F5
:100B100047C0D9FF48C0DAFFDE2A000EDD22D00E22
:100B20004B6EFF0E4C6E47C0D9FF48C0DAFFDECFD8
:100B3000F6FFDDCFF7FF0800F5504D6E4E6A4B50C3
:100B40004D264C504E224E500AE10A0E4D5CD8A064
:100B5000ACEF05F0AFEF05F0010EB0EF05F0000EC1
:100B60000001BF6FC06BBF51C011D8A4BAEF05F030
:100B7000BCEF05F088EF05F047C0D9FF48C0DAFFA9
:100B8000DECFF6FFDDCFF7FF0800F550630AD8A4EB
:100B9000CCEF05F0CEEF05F0F5EF05F047C0D9FF3B
:100BA00048C0DAFFDE2A000EDD2249C0D9FF4AC064
:100BB000DAFFDFCF4BF0020EDE26DFCF4CF0000E67
:100BC000DD224BC0D9FF4CC0DAFFDF50CB6F45C0F0
:100BD0000CF046C00DF0CBC00EF039EC18F00CC094
:100BE00045F00DC046F050EF0DF047C0D9FF48C0AA
:100BF000DAFFDECF03F0DDCF04F0280E056E080E1D
:100C0000066E000E086E030E076E34EC17F00350EC
:100C10000410D8B40EEF06F010EF06F02BEF06F03C
:100C200047C0D9FF48C0DAFFDECF03F0DDCF04F0C4
:100C30002C0E056E080E066E000E086E030E076E73
:100C400034EC17F003500410D8A429EF06F02BEF72
:100C500006F06CEF06F0030E47C0D9FF48C0DAFF7C
:100C6000DE26000EDD2249C0D9FF4AC0DAFFDFCF01
:100C70004BF0020EDE26DFCF4CF0000EDD224BC023
:100C8000D9FF4CC0DAFFDF500001C16F000EC1BFB9
:100C9000FF0EC26FC36FC46FC56FC66FC76FC86FDB
:100CA00045C01EF046C01FF0C1C020F0C2C021F0F8
:100CB000C3C022F0C4C023F0C5C024F0C6C025F0D4
:100CC000C7C026F0C8C027F051EC0DF01EC045F09B
:100CD0001FC046F050EF0DF047C0D9FF48C0DAFF03
:100CE000DECF03F0DDCF04F0290E056E080E066E90
:100CF000000E086E020E076E34EC17F0035004105D
:100D0000D8B485EF06F087EF06F0A2EF06F047C0F3
:100D1000D9FF48C0DAFFDECF03F0DDCF04F02D0E9F
:100D2000056E080E066E000E086E020E076E34EC9D
:100D300017F003500410D8A4A0EF06F0A2EF06F0BD
:100D4000CAEF06F0020E47C0D9FF48C0DAFFDE2620
:100D5000000EDD2249C0D9FF4AC0DAFFDFCF4BF0D9
:100D6000020EDE26DFCF4CF0000EDD224BC0D9FF95
:100D70004CC0DAFFDECFC1F0DDCFC2F00001000EC3
:100D8000C2BFFF0EC36FC46FC56FC66FC76FC86F9A
:100D900050EF06F047C0D9FF48C0DAFFDECFF6FFBC
:100DA000DDCFF7FF0800F550640AD8B4DAEF06F09B
:100DB000DCEF06F0EEEF06F047C0D9FF48C0DAFFDF
:100DC000DECFF6FFDDCFF7FF0800F550690AD8A4A3
:100DD000ECEF06F0EEEF06F015EF07F047C0D9FF95
:100DE00048C0DAFFDE2A000EDD2249C0D9FF4AC022
:100DF000DAFFDFCF4BF0020EDE26DFCF4CF0000E25
:100E0000DD224BC0D9FF4CC0DAFFDECFC1F0DDCF11
:100E1000C2F00001000EC2BFFF0EC36FC46FC56FEA
:100E2000C66FC76FC86F50EF06F047C0D9FF48C004
:100E3000DAFFDECF03F0DDCF04F0430E056E080EBF
:100E4000066E000E086E020E076E34EC17F00350AB
:100E50000410D8B42EEF07F030EF07F04BEF07F097
:100E600047C0D9FF48C0DAFFDECF03F0DDCF04F082
:100E7000460E056E080E066E000E086E020E076E18
:100E800034EC17F003500410D8A449EF07F04BEFEF
:100E900007F074EF07F0020E47C0D9FF48C0DAFF31
:100EA000DE26000EDD2249C0D9FF4AC0DAFFDFCFBF
:100EB0004BF0020EDE26DFCF4CF0000EDD224BC0E1
:100EC000D9FF4CC0DAFFDECF4DF0DDCF4EF04DC084
:100ED000C1F04EC0C2F00001C36BC46BC56BC66BE2
:100EE000C76BC86B50EF06F047C0D9FF48C0DAFFA8
:100EF000DECF03F0DDCF04F0340E056E080E066E73
:100F0000000E086E030E076E34EC17F00350041049
:100F1000D8A48DEF07F08FEF07F0CFEF07F0030EA7
:100F200047C0D9FF48C0DAFFDE26000EDD2249C0E7
:100F3000D9FF4AC0DAFFDFCF4BF0020EDE26DFCF4B
:100F40004CF0000EDD224BC0D9FF4CC0DAFFDF5061
:100F50004D6E4D500001CC6FCD6BCE6BCF6BD06B17
:100F6000D16BD26BD36B45C01EF046C01FF0CCC016
:100F700020F0CDC021F0CEC022F0CFC023F0D0C0F1
:100F800024F0D1C025F0D2C026F0D3C027F04DEC1C
:100F900013F01EC045F01FC046F050EF0DF047C0E3
:100FA000D9FF48C0DAFFDECF03F0DDCF04F0350E05
:100FB000056E080E066E000E086E020E076E34EC0B
:100FC00017F003500410D8A4E8EF07F0EAEF07F099
:100FD00013EF08F0020E47C0D9FF48C0DAFFDE2643
:100FE000000EDD2249C0D9FF4AC0DAFFDFCF4BF047
:100FF000020EDE26DFCF4CF0000EDD224BC0D9FF03
:101000004CC0DAFFDECF4DF0DDCF4EF04DC0CCF05E
:101010004EC0CDF00001CE6BCF6BD06BD16BD26BDD
:10102000D36BB3EF07F047C0D9FF48C0DAFFDECF7C
:10103000F6FFDDCFF7FF0800F5506F0AD8A423EFC5
:1010400008F025EF08F04DEF08F047C0D9FF48C081
:10105000DAFFDE2A000EDD2249C0D9FF4AC0DAFFDE
:10106000DFCF4BF0020EDE26DFCF4CF0000EDD228C
:101070004BC0D9FF4CC0DAFFDECF4DF0DDCF4EF0D4
:101080004DC0CCF04EC0CDF00001CE6BCF6BD06B1D
:10109000D16BD26BD36BB3EF07F047C0D9FF48C019
:1010A000DAFFDECF03F0DDCF04F04C0E056E080E44
:1010B000066E000E086E020E076E34EC17F0035039
:1010C0000410D8A466EF08F068EF08F091EF08F07C
:1010D000020E47C0D9FF48C0DAFFDE26000EDD222F
:1010E00049C0D9FF4AC0DAFFDFCF4BF0020EDE263F
:1010F000DFCF4CF0000EDD224BC0D9FF4CC0DAFF31
:10110000DECF4DF0DDCF4EF04DC0CCF04EC0CDF077
:101110000001CE6BCF6BD06BD16BD26BD36BB3EFC7
:1011200007F047C0D9FF48C0DAFFDECF03F0DDCFBC
:1011300004F0300E056E080E066E000E086E030EEB
:10114000076E34EC17F003500410D8A4AAEF08F08F
:10115000ACEF08F0D4EF08F0030E47C0D9FF48C049
:10116000DAFFDE26000EDD2249C0D9FF4AC0DAFFD1
:10117000DFCF4BF0020EDE26DFCF4CF0000EDD227B
:101180004BC0D9FF4CC0DAFFDECFC9F0DDCFCAF0CB
:10119000C9C0D9FFCAC0DAFF60C0DFFF000E466ECB
:1011A000000E456E50EF0DF047C0D9FF48C0DAFF82
:1011B000DECF03F0DDCF04F0310E056E080E066EB3
:1011C000000E086E020E076E34EC17F00350041088
:1011D000D8A4EDEF08F0EFEF08F015EF09F0020EDC
:1011E00047C0D9FF48C0DAFFDE26000EDD2249C025
:1011F000D9FF4AC0DAFFDFCF4BF0020EDE26DFCF89
:101200004CF0000EDD224BC0D9FF4CC0DAFFDECF20
:10121000C9F0DDCFCAF0C9C0D9FFCAC0DAFF60C0CB
:10122000DEFF61C0DDFFCEEF08F047C0D9FF48C048
:10123000DAFFDECFF6FFDDCFF7FF0800F5506E0ACC
:10124000D8A425EF09F027EF09F04CEF09F047C0CB
:10125000D9FF48C0DAFFDE2A000EDD2249C0D9FFDF
:101260004AC0DAFFDFCF4BF0020EDE26DFCF4CF0B4
:10127000000EDD224BC0D9FF4CC0DAFFDECFC9F033
:10128000DDCFCAF0C9C0D9FFCAC0DAFF60C0DEFF37
:1012900061C0DDFFCEEF08F047C0D9FF48C0DAFFDC
:1012A000DECF03F0DDCF04F0490E056E080E066EAA
:1012B000000E086E020E076E34EC17F00350041097
:1012C000D8A465EF09F067EF09F08DEF09F0020E81
:1012D00047C0D9FF48C0DAFFDE26000EDD2249C034
:1012E000D9FF4AC0DAFFDFCF4BF0020EDE26DFCF98
:1012F0004CF0000EDD224BC0D9FF4CC0DAFFDECF30
:10130000C9F0DDCFCAF0C9C0D9FFCAC0DAFF60C0DA
:10131000DEFF61C0DDFFCEEF08F047C0D9FF48C057
:10132000DAFFDECFF6FFDDCFF7FF0800F550700AD9
:10133000D8A49DEF09F09FEF09F0E3EF09F047C053
:10134000D9FF48C0DAFFDE2A000EDD2249C0D9FFEE
:101350004AC0DAFFDFCF4BF0020EDE26DFCF4CF0C3
:10136000000EDD224BC0D9FF4CC0DAFFDECF4DF0BE
:10137000DDCF4EF04DC0CCF04EC0CDF00001CE6BB5
:10138000CF6BD06BD16BD26BD36B45C01EF046C018
:101390001FF0CCC020F0CDC021F0CEC022F0CFC0D5
:1013A00023F0D0C024F0D1C025F0D2C026F0D3C0A5
:1013B00027F0780E286EC0EC0EF01EC045F01FC05E
:1013C00046F050EF0DF047C0D9FF48C0DAFFDECF3E
:1013D000F6FFDDCFF7FF0800F550730AD8A4F3EF4E
:1013E00009F0F5EF09F020EF0AF047C0D9FF48C037
:1013F000DAFFDE2A000EDD2249C0D9FF4AC0DAFF3B
:10140000DFCF4BF0020EDE26DFCF4CF0000EDD22E8
:101410004BC0D9FF4CC0DAFFDECFB9F0DDCFBAF058
:1014200045C00CF046C00DF0B9C00EF0BAC00FF0C8
:1014300006EC15F00CC045F00DC046F050EF0DF075
:1014400047C0D9FF48C0DAFFDECF03F0DDCF04F09C
:10145000380E056E080E066E000E086E030E076E3F
:1014600034EC17F003500410D8A439EF0AF03BEF26
:101470000AF07BEF0AF0030E47C0D9FF48C0DAFF3D
:10148000DE26000EDD2249C0D9FF4AC0DAFFDFCFD9
:101490004BF0020EDE26DFCF4CF0000EDD224BC0FB
:1014A000D9FF4CC0DAFFDF504D6E4D500001CC6FBC
:1014B000CD6BCE6BCF6BD06BD16BD26BD36B45C08A
:1014C0001EF046C01FF0CCC020F0CDC021F0CEC031
:1014D00022F0CFC023F0D0C024F0D1C025F0D2C07C
:1014E00026F0D3C027F051EC11F01EC045F01FC00C
:1014F00046F050EF0DF047C0D9FF48C0DAFFDECF0D
:1015000003F0DDCF04F0390E056E080E066E000EF6
:10151000086E020E076E34EC17F003500410D8A4C6
:1015200094EF0AF096EF0AF0BFEF0AF0020E47C000
:10153000D9FF48C0DAFFDE26000EDD2249C0D9FF00
:101540004AC0DAFFDFCF4BF0020EDE26DFCF4CF0D1
:10155000000EDD224BC0D9FF4CC0DAFFDECF4DF0CC
:10156000DDCF4EF04DC0CCF04EC0CDF00001CE6BC3
:10157000CF6BD06BD16BD26BD36B5FEF0AF047C0F0
:10158000D9FF48C0DAFFDECFF6FFDDCFF7FF080056
:10159000F550750AD8A4CFEF0AF0D1EF0AF0F9EFB1
:1015A0000AF047C0D9FF48C0DAFFDE2A000EDD226C
:1015B00049C0D9FF4AC0DAFFDFCF4BF0020EDE266A
:1015C000DFCF4CF0000EDD224BC0D9FF4CC0DAFF5C
:1015D000DECF4DF0DDCF4EF04DC0CCF04EC0CDF0A3
:1015E0000001CE6BCF6BD06BD16BD26BD36B5FEF47
:1015F0000AF047C0D9FF48C0DAFFDECF03F0DDCFE5
:1016000004F04F0E056E080E066E000E086E020EF8
:10161000076E34EC17F003500410D8A412EF0BF04F
:1016200014EF0BF03DEF0BF0020E47C0D9FF48C09E
:10163000DAFFDE26000EDD2249C0D9FF4AC0DAFFFC
:10164000DFCF4BF0020EDE26DFCF4CF0000EDD22A6
:101650004BC0D9FF4CC0DAFFDECF4DF0DDCF4EF0EE
:101660004DC0CCF04EC0CDF00001CE6BCF6BD06B37
:10167000D16BD26BD36B5FEF0AF047C0D9FF48C084
:10168000DAFFDECF03F0DDCF04F03C0E056E080E6E
:10169000066E000E086E030E076E34EC17F0035052
:1016A0000410D8B456EF0BF058EF0BF073EF0BF0BB
:1016B00047C0D9FF48C0DAFFDECF03F0DDCF04F02A
:1016C000240E056E080E066E000E086E030E076EE1
:1016D00034EC17F003500410D8A471EF0BF073EF43
:1016E0000BF0C8EF0BF047C0D9FF48C0DAFFDECFE0
:1016F0004BF0DDCF4CF0020E4B26000E4C224BC0BF
:10170000F6FF4CC0F7FF0800F5CFCBF0030E47C043
:10171000D9FF48C0DAFFDE26000EDD2249C0D9FF1E
:101720004AC0DAFFDFCF4BF0020EDE26DFCF4CF0EF
:10173000000EDD224BC0D9FF4CC0DAFFDF504D6EEA
:101740004D500001CC6FCD6BCE6BCF6BD06BD16B9E
:10175000D26BD36B45C01EF046C01FF0CCC020F04A
:10176000CDC021F0CEC022F0CFC023F0D0C024F0F5
:10177000D1C025F0D2C026F0D3C027F0CBC028F0CE
:10178000C0EC0EF01EC045F01FC046F050EF0DF04B
:1017900047C0D9FF48C0DAFFDECF03F0DDCF04F049
:1017A0003D0E056E080E066E000E086E020E076EE8
:1017B00034EC17F003500410D8B4E1EF0BF0E3EF72
:1017C0000BF0FEEF0BF047C0D9FF48C0DAFFDECFC9
:1017D00003F0DDCF04F0250E056E080E066E000E38
:1017E000086E020E076E34EC17F003500410D8A4F4
:1017F000FCEF0BF0FEEF0BF03AEF0CF047C0D9FF17
:1018000048C0DAFFDECF4BF0DDCF4CF0010E4B26A7
:10181000000E4C224BC0F6FF4CC0F7FF0800F5CF7E
:10182000CBF0020E47C0D9FF48C0DAFFDE26000E1B
:10183000DD2249C0D9FF4AC0DAFFDFCF4BF0020EEC
:10184000DE26DFCF4CF0000EDD224BC0D9FF4CC0AE
:10185000DAFFDECF4DF0DDCF4EF04DC0CCF04EC004
:10186000CDF00001CE6BCF6BD06BD16BD26BD36B55
:10187000AAEF0BF047C0D9FF48C0DAFFDECFF6FF72
:10188000DDCFF7FF0800F550780AD8B44AEF0CF026
:101890004CEF0CF05EEF0CF047C0D9FF48C0DAFF08
:1018A000DECFF6FFDDCFF7FF0800F550580AD8A4C9
:1018B0005CEF0CF05EEF0CF091EF0CF047C0D9FF3D
:1018C00048C0DAFFDECFF6FFDDCFF7FF0800F5CF27
:1018D000CBF047C0D9FF48C0DAFFDE2A000EDD2278
:1018E00049C0D9FF4AC0DAFFDFCF4BF0020EDE2637
:1018F000DFCF4CF0000EDD224BC0D9FF4CC0DAFF29
:10190000DECF4DF0DDCF4EF04DC0CCF04EC0CDF06F
:101910000001CE6BCF6BD06BD16BD26BD36BAAEFC8
:101920000BF047C0D9FF48C0DAFFDECF03F0DDCFB0
:1019300004F0520E056E080E066E000E086E020EC2
:10194000076E34EC17F003500410D8B4AAEF0CF073
:10195000ACEF0CF0C7EF0CF047C0D9FF48C0DAFF7E
:10196000DECF03F0DDCF04F0400E056E080E066EEC
:10197000000E086E020E076E34EC17F003500410D0
:10198000D8A4C5EF0CF0C7EF0CF003EF0DF047C083
:10199000D9FF48C0DAFFDECF4BF0DDCF4CF0010EAF
:1019A0004B26000E4C224BC0F6FF4CC0F7FF080040
:1019B000F5CFCBF0020E47C0D9FF48C0DAFFDE26D4
:1019C000000EDD2249C0D9FF4AC0DAFFDFCF4BF05D
:1019D000020EDE26DFCF4CF0000EDD224BC0D9FF19
:1019E0004CC0DAFFDECF4DF0DDCF4EF04DC0CCF075
:1019F0004EC0CDF00001CE6BCF6BD06BD16BD26BF4
:101A0000D36BAAEF0BF047C0D9FF48C0DAFFDECF97
:101A1000F6FFDDCFF7FF0800F550250AD8A413EF35
:101A20000DF015EF0DF02CEF0DF047C0D9FF48C0B9
:101A3000DAFFDE2A000EDD22000E046E250E036E94
:101A400045C005F046C006F00CEC19F0000E466EDD
:101A5000010E456E50EF0DF047C0D9FF48C0DAFFC8
:101A6000DE2A000EDD22CEEF08F047C0D9FF48C0C5
:101A7000DAFFDECFF6FFDDCFF7FF0800F550036E8B
:101A8000046A45C005F046C006F00CEC19F047C0EA
:101A9000D9FF48C0DAFFDE2A000EDD2226EF0DF066
:101AA000120020C038F021C039F022C03AF023C023
:101AB0003BF024C03CF025C03DF026C03EF027C0DE
:101AC0003FF03FBE66EF0DF069EF0DF0010E6AEFDB
:101AD0000DF0000E366E376A36503710D8B473EFFB
:101AE0000DF075EF0DF085EF0DF03F1E3E1E3D1E13
:101AF0003C1E3B1E3A1E391E386C000E39223A221B
:101B00003B223C223D223E223F22000165BF8BEF5B
:101B10000DF08DEF0DF08EEF0DF05B9265BF9BEF3A
:101B20000DF0655106E16405D8B099EF0DF09BEF1B
:101B30000DF0A1EF0DF0000E336E010E326EA5EF29
:101B40000DF064C032F065C033F062C034F063C0A1
:101B500035F036503710D8A4B0EF0DF0B2EF0DF0DD
:101B6000B9EF0DF05BA4B7EF0DF0B9EF0DF0BCEFDE
:101B70000DF03406D8A03506000E416E1F0E406EE3
:101B8000000EB86F40EF0EF04006D8A04106990E47
:101B90004024D96E000E4120DA6E38C003F039C0FF
:101BA00004F03AC005F03BC006F03CC007F03DC071
:101BB00008F03EC009F03FC00AF00A0E0B6E000E9E
:101BC0000C6E000E0D6E000E0E6E000E0F6E000EEF
:101BD000106E000E116E000E126E82EC16F003C035
:101BE00028F004C029F005C02AF006C02BF007C079
:101BF0002CF008C02DF009C02EF00AC02FF028C02C
:101C000015F02AC016F08FEC1CF01550300FDF6E67
:101C10003206D8A033063406D8A0350638C003F003
:101C200039C004F03AC005F03BC006F03CC007F0F4
:101C30003DC008F03EC009F03FC00AF00A0E0B6E2E
:101C4000000E0C6E000E0D6E000E0E6E000E0F6E6E
:101C5000000E106E000E116E000E126E42EC14F0AB
:101C600003C038F004C039F005C03AF006C03BF0BC
:101C700007C03CF008C03DF009C03EF00AC03FF08C
:101C800041BE4BEF0EF0415008E14004D8A04BEFAD
:101C90000EF04DEF0EF07DEF0EF0385039103A1087
:101CA0003B103C103D103E103F10D8A45AEF0EF0F0
:101CB0005CEF0EF0C4EF0DF033BE69EF0EF0335061
:101CC00006E13204D8B067EF0EF069EF0EF0C4EF12
:101CD0000DF035BE74EF0EF0355008E13404D8A095
:101CE00074EF0EF076EF0EF07DEF0EF05BB27BEF4F
:101CF0000EF07DEF0EF0C4EF0DF036503710D8A483
:101D000084EF0EF086EF0EF08DEF0EF05BA48BEFFC
:101D10000EF08DEF0EF0ABEF0EF04006D8A04106AE
:101D200036503710D8A497EF0EF099EF0EF09FEFD2
:101D30000EF0000E316E2B0E306EA3EF0EF0000E83
:101D4000316E2D0E306E990E4024D96E000E41205A
:101D5000DA6E30C0DFFF1EC013F01FC014F0990E02
:101D60004024156E000E4120166E34C017F035C0A9
:101D700018F071EC19F013C01EF014C01FF012001F
:101D8000000165BFC6EF0EF0C8EF0EF0C9EF0EF010
:101D90005B9265BFD6EF0EF0655106E16405D8B0E1
:101DA000D4EF0EF0D6EF0EF0DCEF0EF0000E366E34
:101DB000010E356EE0EF0EF064C035F065C036F010
:101DC00062C037F063C038F05BA8E9EF0EF0EBEFCC
:101DD0000EF0EFEF0EF0FE0E3726FF0E382220C079
:101DE00039F021C03AF022C03BF023C03CF024C0BF
:101DF0003DF025C03EF026C03FF027C040F0000E69
:101E0000426E1F0E416E000EB86FBAEF0FF0410622
:101E1000D8A042060F0E3914436E446A44BE1AEF2E
:101E20000FF0445009E10A0E435CD8A01AEF0FF0FE
:101E30001CEF0FF024EF0FF0570E4324436E000EFB
:101E40004420446E2AEF0FF0300E4324436E000E00
:101E50004420446EBF0E296EFF0E2A6E28502B6E52
:101E60002C6A29502B262A502C222C500AE11A0EBB
:101E70002B5CD8A03EEF0FF041EF0FF0010E42EFC8
:101E80000FF0000E316E326A31503210D8B44BEF81
:101E90000FF04DEF0FF07DEF0FF09F0E296EFF0E4C
:101EA0002A6E200E43102B6E000E44102C6E29500B
:101EB0002B262A502C222C500AE11A0E2B5CD8A07B
:101EC00064EF0FF067EF0FF0010E68EF0FF0000EF8
:101ED000336E346A33503410D8B471EF0FF073EFAF
:101EE0000FF07DEF0FF043C009F044C00AF033EC6F
:101EF0001BF009C043F00AC044F0990E4124D96E8A
:101F0000000E4220DA6E43C0DFFF3506D8A0360649
:101F10003706D8A0380639C029F03AC02AF03BC0AD
:101F20002BF03CC02CF03DC02DF03EC02EF03FC049
:101F30002FF040C030F0050EA7EF0FF0D8903032F0
:101F40002F322E322D322C322B322A322932E82EE9
:101F50009EEF0FF029C039F02AC03AF02BC03BF0B9
:101F60002CC03CF02DC03DF02EC03EF02FC03FF005
:101F700030C040F042BEC6EF0FF0425009E1020E01
:101F8000415CD8A0C6EF0FF0C8EF0FF0F8EF0FF0EC
:101F900039503A103B103C103D103E103F1040109D
:101FA000D8A4D5EF0FF0D7EF0FF007EF0FF036BE44
:101FB000E4EF0FF0365006E13504D8B0E2EF0FF051
:101FC000E4EF0FF007EF0FF038BEEFEF0FF03850EF
:101FD00008E13704D8A0EFEF0FF0F1EF0FF0F8EFC2
:101FE0000FF05BB2F6EF0FF0F8EF0FF007EF0FF026
:101FF0005BA8FDEF0FF0FFEF0FF015EF10F04106BB
:10200000D8A04206990E4124D96E000E4220DA6E05
:1020100028C0DFFF4106D8A04206990E4124D96EA0
:10202000000E4220DA6E300EDF6E1EC013F01FC0AD
:1020300014F0990E4124156E000E4220166E37C022
:1020400017F038C018F071EC19F013C01EF014C06E
:102050001FF01200000E036E010E046E000E066EDD
:10206000000E056E000E086E280E076EC7EC15F008
:10207000000E956E8C945E0E576E800EE82EFED785
:10208000572EFCD700D08C841A0EE82EFED700D035
:10209000010E956E83B44FEF10F051EF10F04AEF40
:1020A00010F083A456EF10F058EF10F051EF10F03D
:1020B00083B45DEF10F05FEF10F058EF10F0000EFA
:1020C0000001EA6F27EC1CF00001EA51020D000E3E
:1020D000F324D96E010EF420DA6E03C0DEFF04C0D3
:1020E000DDFFEA2B270EEA6578EF10F07AEF10F0AB
:1020F00062EF10F0000EE56F000EE46F000EE76F68
:10210000000EE66F000EEE6F000EED6F000EE96F31
:10211000070EE86F000EEE6F000EED6FD890ED35F4
:10212000D96EEE35DA6E000ED926010EDA22DECF38
:10213000EBF0DDCFECF0E8C057F0EBC058F0ECC0AE
:1021400059F0572AA7EF10F0D89058365936572E25
:10215000A4EF10F058C0EBF059C0ECF00001EB51C7
:10216000E411E46FEC51E511E56FE807D8A0E90749
:10217000ED4BEE2BEEBFC6EF10F0EE5109E1080E6D
:10218000ED5DD8A0C6EF10F0C8EF10F08EEF10F0A4
:10219000000EE96F070EE86F000EEE6F100EED6F88
:1021A000D890ED35D96EEE35DA6E000ED926010ED7
:1021B000DA22DECFEBF0DDCFECF0E8C057F0EBC079
:1021C00058F0ECC059F0572AE9EF10F0D890583683
:1021D0005936572EE6EF10F058C0EBF059C0ECF02E
:1021E0000001EB51E611E66FEC51E711E76FE807EC
:1021F000D8A0E907ED4BEE2BEEBF08EF11F0EE5142
:1022000009E1180EED5DD8A008EF11F00AEF11F00A
:10221000D0EF10F0670E036E000E046E000E066E17
:10222000000E056E000E086E320E076EC7EC15F03C
:10223000670E0001D46F000ED56F010ED66F080E29
:10224000D76FE6C0D8F0E7C0D9F062EC1BF0670E9C
:10225000076E000E086E4AEC1CF0670E036E000E4F
:10226000046E000E066E000E056E000E086E320E35
:10227000076EC7EC15F0670E0001D46F000ED56F26
:102280000F0ED66F080ED76FE4C0D8F0E5C0D9F0B6
:1022900062EC1BF0670E076E000E086E4AEC1CF035
:1022A0001200000165BF57EF11F059EF11F05AEF1E
:1022B00011F05B9265BF67EF11F0655106E16405AF
:1022C000D8B065EF11F067EF11F06DEF11F0000E6F
:1022D000316E010E306E71EF11F064C030F065C0E8
:1022E00031F062C032F063C033F020C034F021C05E
:1022F00035F022C036F023C037F024C038F025C0B6
:1023000039F026C03AF027C03BF0000E3D6E1F0E9C
:102310003C6E000EB86F03EF12F03C06D8A03D06ED
:10232000990E3C24D96E000E3D20DA6E34C003F0C5
:1023300035C004F036C005F037C006F038C007F0ED
:1023400039C008F03AC009F03BC00AF00A0E0B6E23
:10235000000E0C6E000E0D6E000E0E6E000E0F6E57
:10236000000E106E000E116E000E126EA4EC18F02E
:1023700003C028F004C029F005C02AF006C02BF0E5
:1023800007C02CF008C02DF009C02EF00AC02FF0B5
:102390002850300FDF6E3006D8A031063206D8A0A4
:1023A000330634C003F035C004F036C005F037C042
:1023B00006F038C007F039C008F03AC009F03BC059
:1023C0000AF00A0E0B6E000E0C6E000E0D6E000E63
:1023D0000E6E000E0F6E000E106E000E116E000ECF
:1023E000126EC1EC17F003C034F004C035F005C024
:1023F00036F006C037F007C038F008C039F009C021
:102400003AF00AC03BF03C503D10D8B40AEF12F04D
:102410000CEF12F03CEF12F034503510361037103C
:10242000381039103A103B10D8A419EF12F01BEFF6
:1024300012F08DEF11F031BE28EF12F0315006E1AD
:102440003004D8B026EF12F028EF12F08DEF11F023
:1024500033BE33EF12F0335008E13204D8A033EF2B
:1024600012F035EF12F03CEF12F05BB23AEF12F0DF
:102470003CEF12F08DEF11F01EC013F01FC014F0EE
:10248000990E3C24156E000E3D20166E32C017F0DA
:1024900033C018F071EC19F013C01EF014C01FF017
:1024A0001200000E186E000E176E000E116E000E58
:1024B000106E5DEF12F00A4A0B2A010E166E0AC06A
:1024C000F6FF0BC0F7FFF86A070EF76403D00800A9
:1024D000F55005D0F6CFE1FFF7CFE2FFE750200A35
:1024E000D8B475EF12F077EF12F09EEF12F0F70EFE
:1024F0000C6EFF0E0D6E0AC0F6FF0BC0F7FFF86AF8
:10250000070EF76403D00800F55005D0F6CFE1FFC1
:10251000F7CFE2FFE7500E6E0F6A0C500E260D50FB
:102520000F220F5009E1050E0E5CD8A09AEF12F0B1
:102530009CEF12F09EEF12F0000E166E16C012F015
:10254000136A12501310D8A4A8EF12F0AAEF12F0D9
:102550005BEF12F0B4EF12F0000E116E010E106E70
:102560000A4A0B2AFFEF12F00AC0F6FF0BC0F7FF72
:10257000F86A070EF76403D00800F55005D0F6CFCF
:10258000E1FFF7CFE2FFE7500C6E0D6A0D50000A35
:10259000D8B4CDEF12F0FFEF12F00C502B0AD8B4E4
:1025A000B0EF12F0060AD8B4ACEF12F0FFEF12F061
:1025B00017C003F018C004F0000E066E0A0E056E78
:1025C00059EC1DF00AC0F6FF0BC0F7FFF86A070EC2
:1025D000F76403D00800F55005D0F6CFE1FFF7CF40
:1025E000E2FFE7500C6E0C50035E000E045A300EF2
:1025F0000324176E000E0420186EB0EF12F0D00EF8
:102600000C6EFF0E0D6E0AC0F6FF0BC0F7FFF86AE6
:10261000070EF76403D00800F55005D0F6CFE1FFB0
:10262000F7CFE2FFE7500E6E0F6A0C500E260D50EA
:102630000F220F500AE10A0E0E5CD8A022EF13F011
:1026400025EF13F0010E26EF13F0000E146E156A3D
:1026500014501510D8A42FEF13F031EF13F0D8EF6A
:1026600012F010501110D8A438EF13F03AEF13F015
:1026700048EF13F017C00CF018C00DF00C1E0D1E23
:102680000C4A0D2A0CC00AF00DC00BF04CEF13F0F1
:1026900017C00AF018C00BF01200000165BF53EF1D
:1026A00013F055EF13F056EF13F05B9265BF63EF35
:1026B00013F0655106E16405D8B061EF13F063EFE4
:1026C00013F069EF13F0000E316E010E306E6DEFF6
:1026D00013F064C030F065C031F062C034F063C004
:1026E00035F020C036F021C037F022C038F023C0CA
:1026F00039F024C03AF025C03BF026C03CF027C09A
:102700003DF0000E3F6E1F0E3E6E000EB86F000EC5
:10271000336E000E326ED2EF13F03E06D8A03F06A5
:10272000070E3614326E336A990E3E24D96E000EAF
:102730003F20DA6E3250300FDF6E3006D8A03106FF
:102740003406D8A0350636C028F037C029F038C086
:102750002AF039C02BF03AC02CF03BC02DF03CC021
:102760002EF03DC02FF0040EBFEF13F0D8902F32A3
:102770002E322D322C322B322A3229322832E82EB8
:10278000B6EF13F028C036F029C037F02AC038F071
:102790002BC039F02CC03AF02DC03BF02EC03CF0DD
:1027A0002FC03DF03FBEDDEF13F03F5008E13E0487
:1027B000D8A0DDEF13F0DFEF13F00FEF14F0365079
:1027C0003710381039103A103B103C103D10D8A487
:1027D000ECEF13F0EEEF13F08DEF13F031BEFBEFE3
:1027E00013F0315006E13004D8B0F9EF13F0FBEFED
:1027F00013F08DEF13F035BE06EF14F0355008E1FD
:102800003404D8A006EF14F008EF14F00FEF14F022
:102810005BB20DEF14F00FEF14F08DEF13F05BA827
:1028200014EF14F016EF14F02DEF14F032503310B3
:10283000D8B41DEF14F01FEF14F02DEF14F03E0686
:10284000D8A03F06990E3E24D96E000E3F20DA6EC6
:10285000300EDF6E3406D8A035061EC013F01FC040
:1028600014F0990E3E24156E000E3F20166E34C0F3
:1028700017F035C018F071EC19F013C01EF014C039
:102880001FF01200000E146E12BE4BEF14F049EF51
:1028900014F05DEF14F0121E111E101E0F1E0E1EFE
:1028A0000D1E0C1E0B6C000E0C220D220E220F2290
:1028B000102211221222010E146E0ABE64EF14F0CF
:1028C00062EF14F076EF14F00A1E091E081E071EB0
:1028D000061E051E041E036C000E0422052206229D
:1028E0000722082209220A22010E141A20EE15F0EE
:1028F000070EDE6AE806FDE20B500C100D100E10FC
:102900000F10101011101210D8B489EF14F08BEFC3
:1029100014F0DDEF14F0010E136E99EF14F0D8905F
:102920000B360C360D360E360F3610361136123683
:10293000132A12AE9EEF14F0A0EF14F08FEF14F0F4
:10294000D890153616361736183619361A361B36FD
:102950001C360B50035C0C5004580D5005580E509B
:1029600006580F5007581050085811500958125067
:102970000A58D8A0BEEF14F0C0EF14F0D1EF14F055
:102980000B50035E0C50045A0D50055A0E50065A57
:102990000F50075A1050085A1150095A12500A5A2B
:1029A0001580D8901232113210320F320E320D32A1
:1029B0000C320B32132EA0EF14F01450D8B4E3EF06
:1029C00014F0E5EF14F0F5EF14F01C1E1B1E1A1E98
:1029D000191E181E171E161E156C000E1622172221
:1029E000182219221A221B221C2215C003F016C01D
:1029F00004F017C005F018C006F019C007F01AC09F
:102A000008F01BC009F01CC00AF0120020EEF1F023
:102A100010EE11F0060EDBCFE3FFE806FCE20EC07D
:102A20001CF00FC01DF01C501D10D8A41AEF15F09B
:102A30001CEF15F020EF15F0110E1C6E000E1D6E30
:102A40001CC003F01DC004F0B4EC1BF003C020F068
:102A500004C021F064C01EF065C01FF01FBE33EF3C
:102A600015F035EF15F04AEF15F020501E5C1F50A1
:102A7000800A106E2150800A1058D8A042EF15F03D
:102A800044EF15F046EF15F04AEF15F01EC020F0A8
:102A90001FC021F020C01EF021C01FF062C01AF03C
:102AA00063C01BF05BB057EF15F059EF15F076EFF0
:102AB00015F067EF15F0000E046E200E036E0CC0CB
:102AC00005F00DC006F00CEC19F0204A212A1A502E
:102AD000205C2150800A106E1B50800A1058D8A02C
:102AE00074EF15F076EF15F05BEF15F0000E196E30
:102AF000000E186E8FEF15F01CC0D9FF1DC0DAFF55
:102B0000DF50106E1050036E046A0CC005F00DC04B
:102B100006F00CEC19F01C4A1D2A184A192A1E50FE
:102B2000185C1950800A106E1F50800A1058D8A0E7
:102B30009CEF15F09EEF15F07CEF15F05BA0A3EF76
:102B400015F0A5EF15F0C2EF15F0B3EF15F0000E7C
:102B5000046E200E036E0CC005F00DC006F00CECE8
:102B600019F0204A212A1A50205C2150800A106E48
:102B70001B50800A1058D8A0C0EF15F0C2EF15F016
:102B8000A7EF15F020C00CF021C00DF0120003C01B
:102B90000DF004C00EF007500810D8A4D2EF15F0C5
:102BA000D4EF15F0D6EF15F081EF16F00DC0D9FF78
:102BB0000EC0DAFF05C0DFFF07500D24096E085074
:102BC0000E200A6EFF0E0924D96EFF0E0A20DA6E5F
:102BD00005C0DFFF085007E1030E075CD8B0F3EF34
:102BE00015F0F5EF15F0F7EF15F081EF16F020EE88
:102BF00001F00D50D9260E50DA2205C0DFFF20EE7D
:102C000002F00D50D9260E50DA2205C0DFFF075022
:102C10000D24096E08500E200A6EFE0E0924D96E8E
:102C2000FF0E0A20DA6E05C0DFFF07500D24096E83
:102C300008500E200A6EFD0E0924D96EFF0E0A20E0
:102C4000DA6E05C0DFFF085007E1070E075CD8B059
:102C50002CEF16F02EEF16F030EF16F081EF16F095
:102C600020EE03F00D50D9260E50DA2205C0DFFF0A
:102C700007500D24096E08500E200A6EFC0E092420
:102C8000D96EFF0E0A20DA6E05C0DFFF085007E19B
:102C9000090E075CD8B04FEF16F051EF16F053EF66
:102CA00016F081EF16F00DC009F00EC00AF0091EF3
:102CB0000A1E094A0A2A030E09140B6E0C6A0B50ED
:102CC0000D260C500E220B50075E0C50085AFC0EBD
:102CD0000716FF0E081678EF16F00DC0D9FF0EC0CC
:102CE000DAFF05C0DFFF0706D8A008060D4A0E2A46
:102CF00007500810D8A47FEF16F081EF16F06DEFA3
:102D000016F01200000E146E0ABE8BEF16F089EF5B
:102D100016F09DEF16F00A1E091E081E071E061E5D
:102D2000051E041E036C000E042205220622072243
:102D3000082209220A22010E146E12BEA4EF16F018
:102D4000A2EF16F0B4EF16F0121E111E101E0F1E89
:102D50000E1E0D1E0C1E0B6C000E0C220D220E22E0
:102D60000F221022112212220B500C100D100E10E7
:102D70000F10101011101210D8B4C1EF16F0C3EFDD
:102D800016F00BEF17F0010E136ED1EF16F0D8907E
:102D90000B360C360D360E360F361036113612360F
:102DA000132A12AED6EF16F0D8EF16F0C7EF16F0D2
:102DB0000B50035C0C5004580D5005580E5006582B
:102DC0000F500758105008581150095812500A58FF
:102DD000D8A0EDEF16F0EFEF16F0FFEF16F00B5066
:102DE000035E0C50045A0D50055A0E50065A0F50EF
:102DF000075A1050085A1150095A12500A5AD890BE
:102E00001232113210320F320E320D320C320B32BE
:102E1000132ED8EF16F01450D8B411EF17F013EFAB
:102E200017F023EF17F00A1E091E081E071E061EC4
:102E3000051E041E036C000E042205220622072232
:102E4000082209220A2203C003F004C004F005C0CE
:102E500005F006C006F007C007F008C008F009C07A
:102E600009F00AC00AF0120003C00AF004C00BF017
:102E700005C00CF006C00DF00706D8A0080607280C
:102E800006E10828D8A447EF17F049EF17F056EFEE
:102E900017F0000E046E000E036EC0EF17F00A4A22
:102EA0000B2A0C4A0D2A0706D8A008060AC0F6FF0E
:102EB0000BC0F7FFF86A070EF76403D00800F5505F
:102EC00005D0F6CFE1FFF7CFE2FFE7500009D8B415
:102ED0006CEF17F06EEF17F0A4EF17F00CC0F6FFD1
:102EE0000DC0F7FF0800F5500009D8B47AEF17F0CD
:102EF0007CEF17F0A4EF17F007500810D8B483EF59
:102F000017F085EF17F0A4EF17F00CC0F6FF0DC017
:102F1000F7FF0800F5CF09F00AC0F6FF0BC0F7FF76
:102F2000F86A070EF76403D00800F55005D0F6CF15
:102F3000E1FFF7CFE2FFE7500918D8B4A2EF17F08E
:102F4000A4EF17F04FEF17F00AC0F6FF0BC0F7FF22
:102F5000F86A070EF76403D00800F55005D0F6CFE5
:102F6000E1FFF7CFE2FFE750096E0CC0F6FF0DC09E
:102F7000F7FF0800F550095C036E046AD8A0040648
:102F8000120020EE13F0070EDE6AE806FDE20B5099
:102F90000C100D100E100F10101011101210D8B4CC
:102FA000D4EF17F0D6EF17F028EF18F0010E1B6ED4
:102FB000E4EF17F0D8900B360C360D360E360F3680
:102FC0001036113612361B2A12AEE9EF17F0EBEF6E
:102FD00017F0DAEF17F0D890133614361536163688
:102FE0001736183619361A360B50035C0C50045835
:102FF0000D5005580E5006580F50075810500858DD
:103000001150095812500A58D8A009EF18F00BEFC8
:1030100018F01CEF18F00B50035E0C50045A0D50C2
:10302000055A0E50065A0F50075A1050085A1150A0
:10303000095A12500A5A1380D890123211321032A3
:103040000F320E320D320C320B321B2EEBEF17F01B
:1030500013C003F014C004F015C005F016C006F04C
:1030600017C007F018C008F019C009F01AC00AF01C
:103070001200000162516311D8A441EF18F043EF30
:1030800018F049EF18F062C012F063C013F04FEF70
:1030900018F0FF0E6225126EFF0E6321136E5BA007
:1030A00054EF18F056EF18F05FEF18F00EC003F071
:1030B000046A0CC005F00DC006F00CEC19F013BE4C
:1030C00064EF18F066EF18F068EF18F06CEF18F086
:1030D000000E136E000E126E000E116E000E106EBA
:1030E0007EEF18F0000E046E200E036E0CC005F08B
:1030F0000DC006F00CEC19F0104A112A1250105CA9
:103100001150800A0F6E1350800A0F58D8A08BEF11
:1031100018F08DEF18F072EF18F05BB092EF18F026
:1031200094EF18F09DEF18F00EC003F0046A0CC085
:1031300005F00DC006F00CEC19F0010E10240C6E19
:10314000000E11200D6E12000B500C100D100E1001
:103150000F10101011101210D8B4B1EF18F0B3EF17
:1031600018F0FBEF18F0010E136EC1EF18F0D890B5
:103170000B360C360D360E360F361036113612362B
:10318000132A12AEC6EF18F0C8EF18F0B7EF18F018
:103190000B50035C0C5004580D5005580E50065847
:1031A0000F500758105008581150095812500A581B
:1031B000D8A0DDEF18F0DFEF18F0EFEF18F00B50AC
:1031C000035E0C50045A0D50055A0E50065A0F500B
:1031D000075A1050085A1150095A12500A5AD890DA
:1031E0001232113210320F320E320D320C320B32DB
:1031F000132EC8EF18F003C003F004C004F005C09C
:1032000005F006C006F007C007F008C008F009C0C6
:1032100009F00AC00AF0120005500610D8B413EFE6
:1032200019F015EF19F01EEF19F005500610D8A48B
:103230001CEF19F01EEF19F023EF19F003508CEC7E
:103240001DF070EF19F020EE04F00550D92606505D
:10325000DA22DE50DE10D8B430EF19F032EF19F078
:103260004DEF19F020EE04F00550D9260650DA2271
:1032700010EE02F00550E1260650E222DE50E65C38
:10328000E650800A0B6EDE50800A0B58D8B04BEF28
:1032900019F04DEF19F070EF19F020EE02F0055023
:1032A000D9260650DA22DECF07F0DDCF08F005C0C0
:1032B000D9FF06C0DAFFDECF09F0DDCF0AF00750F4
:1032C0000924D96E08500A20DA6E03C0DFFF20EE11
:1032D00002F00550D9260650DA22DE2A000EDD2241
:1032E00012005BA076EF19F078EF19F082EF19F079
:1032F00015C00CF016C00DF013C00EF014C00FF086
:103300006DEC1CF018BE87EF19F089EF19F08FEF04
:1033100019F017C01CF018C01DF093EF19F0000E43
:103320001D6E000E1C6E000E1B6E000E1A6EA5EFB9
:1033300019F0000E046E200E036E13C005F014C0C9
:1033400006F00CEC19F01A4A1B2A1C501A5C1B5090
:10335000800A196E1D50800A1958D8A0B2EF19F0D2
:10336000B4EF19F099EF19F05BB0B9EF19F0BBEFBA
:1033700019F0C5EF19F015C00CF016C00DF013C010
:103380000EF014C00FF06DEC1CF015C003F016C069
:1033900004F0B4EC1BF01C500324136E1D500420E9
:1033A000146E120010501110D8B4D9EF19F0DBEFE1
:1033B00019F02DEF1AF010C003F011C004F0B4ECB6
:1033C0001BF003C012F004C013F018EF1AF00EC087
:1033D00003F00FC004F010C005F011C006F012C0D9
:1033E00007F013C008F034EC17F003500410D8A411
:1033F000FCEF19F0FEEF19F004EF1AF00EC00EF01A
:103400000FC00FF031EF1AF0010E0E24036E000E04
:103410000F20046E10C0F6FF11C0F7FF0800F55032
:10342000056E066ADBEC1BF003C00EF004C00FF063
:103430000E500F10D8B41FEF1AF021EF1AF02DEF35
:103440001AF00EC0D9FF0FC0DAFFDF50D8A42BEF5F
:103450001AF02DEF1AF0E7EF19F0000E0E6E000EC5
:103460000F6E12006CEC1DF0500E036E010E046E18
:10347000000E066E000E056E020E086E000E076E40
:10348000C7EC15F0000E0001666F000E956E000E81
:103490008C6E150E0001F06F4B0EEF6FBE0EE82E16
:1034A000FED7EF2FFCD7F02FFAD700F02AEC10F060
:1034B0003DEC1DF00009D8B460EF1AF062EF1AF08D
:1034C00049EF1AF08BEC1AF05A6E6DEF1AF08C82FD
:1034D00049EF1AF08C9249EF1AF05A500001EF6F41
:1034E000F06BF051000AD8B478EF1AF049EF1AF0F7
:1034F000EF51000AD8B467EF1AF0010AD8B46AEFA6
:103500001AF0030AD8B487EF1AF049EF1AF049EF1E
:103510001AF007EF00F01C0E146E080E156ECDECBD
:103520001CF00009D8B497EF1AF099EF1AF0D1EF18
:103530001AF0500E0E6E010E0F6E550E106E080E24
:10354000116ED2EC19F0010E0E24196E000E0F2030
:103550001A6E19C00AF01AC00BF051EC12F00AC032
:103560001BF00BC01CF0500E036E010E046E000E1B
:10357000066E000E056E020E086E000E076EC7EC9A
:1035800015F0000E0001666F1B041C10D8A4CBEFD1
:103590001AF0CEEF1AF0010ECFEF1AF0000ED2EFB4
:1035A0001AF0020E120051C055F052C056F0000E33
:1035B0000001616F000E606FF1EF1AF04FC045F02F
:1035C00050C046F0550E476E000E486E53C049F08D
:1035D00054C04AF02CEC04F04550000160274650DE
:1035E000612355C0F6FF56C0F7FF0800F5500009EB
:1035F000D8A4FDEF1AF0FFEF1AF0DEEF1AF060C06A
:103600004FF061C050F01200080EF66E3B0EF76EE0
:10361000000EF86E00EEF1F010EE0FF00900F5CF9D
:10362000EEFFE550E150FAE101EE50F012EE00F04D
:10363000EE6AE550E150FCE1E250FAE101EE00F003
:10364000500EEE6AE806FDE100EE60F0590EEE6AFB
:10365000E806FDE15C6A5B6A5D905D92000EF86EC3
:10366000000132EF1AF09F0E0B6EFF0E0C6E09C0B8
:103670000DF00AC00EF00B500D260C500E220E500D
:103680000AE11A0E0D5CD8A048EF1BF04BEF1BF0BF
:10369000010E4CEF1BF0000E0F6E106A0F50101051
:1036A000D8B455EF1BF057EF1BF05DEF1BF05F0E2A
:1036B0000914096E0A6A61EF1BF009C009F00AC01B
:1036C0000AF01200D80E0001E26F000EE36FD4C0C2
:1036D000DCF0D5C0DDF0000EDF6F000EDE6F000EF7
:1036E000E16F000EE06FDC0E4F6E000E506ED6C024
:1036F00051F0D7C052F0E20E536E000E546ED3EC70
:103700001AF00001DE51D425D96EDF51D521DA6ED1
:10371000000EDF6E1200010E096E200E0318041059
:10372000D8B495EF1BF097EF1BF0B0EF1BF0F70E3E
:10373000056EFF0E066E03C007F004C008F00550CA
:10374000072606500822085009E1050E075CD8A09C
:10375000ACEF1BF0AEEF1BF0B0EF1BF0000E096EEC
:1037600009C003F0046A120003C005F004C006F0AB
:10377000BCEF1BF0034A042A03C0F6FF04C0F7FFA6
:10378000F86A070EF76403D00800F55005D0F6CFAD
:10379000E1FFF7CFE2FFE7500009D8A4D2EF1BF01A
:1037A000D4EF1BF0BAEF1BF00550035C036E06501C
:1037B0000458046E120003C0D9FF04C0DAFF05509C
:1037C000DE18D8A4E6EF1BF0E8EF1BF0EEEF1BF0DD
:1037D00003C003F004C004F000EF1CF003C0D9FFE5
:1037E00004C0DAFF034A042ADF50D8A4FAEF1BF022
:1037F000FCEF1BF0DBEF1BF0000E036E000E046EFF
:1038000012000600D9CF01F0DACF02F09EAA0BEF2A
:103810001CF00DEF1CF021EF1CF0ABA212EF1CF01E
:1038200014EF1CF017EF1CF0AB9800F0AB88500EB3
:1038300000016625D96EDA6A010EDA22AECFDFFF0B
:10384000662B02C0DAFF01C0D9FF5D92110083A48C
:103850002CEF1CF02EEF1CF027EF1CF0280EE82EAA
:10386000FED783A436EF1CF038EF1CF045EF1CF0B8
:1038700083B43DEF1CF03FEF1CF038EF1CF0000E5E
:10388000046E010E036E49EF1CF0000E046E000E74
:10389000036E1200000E0B6E58EF1CF00B50072445
:1038A000D96E000E0820DA6EDF5079EC1DF00B2A7D
:1038B00007C003F008C004F0B4EC1BF00B50096E15
:1038C0000A6A0350095C04500A58D8A06AEF1CF039
:1038D0006CEF1CF04EEF1CF01200000E126E000E8A
:1038E000116E7EEF1CF010C003F0046A0EC005F0EC
:1038F0000FC006F00CEC19F0114A122A11500C24DA
:10390000D96E12500D20DA6EDF50106E1050D8A410
:103910008CEF1CF08EEF1CF073EF1CF0120016BE43
:103920009CEF1CF0165006E11504D8B09AEF1CF07D
:103930009CEF1CF0AAEF1CF015C017F016C018F091
:10394000171E181E174A182A17C015F018C016F0AF
:10395000AEEF1CF015C015F016C016F012009F0E49
:10396000056EFF0E066E200E0310076E000E04108B
:10397000086E055007260650082208500AE11A0E64
:10398000075CD8A0C6EF1CF0C9EF1CF0010ECAEF0F
:103990001CF0000E036E046A1200500E0E6E010E33
:1039A0000F6E14C010F015C011F0D2EC19F00EC05B
:1039B00016F00FC017F016501710D8B4E2EF1CF035
:1039C000E4EF1CF0E7EF1CF0010EE8EF1CF0000E36
:1039D00012009F0E056EFF0E066E03C007F004C0B6
:1039E00008F0055007260650082208500AE11A0E72
:1039F000075CD8A0FEEF1CF001EF1DF0010E02EFF6
:103A00001DF0000E036E046A1200BF0E056EFF0E5D
:103A1000066E03C007F004C008F0055007260650E4
:103A2000082208500AE11A0E075CD8A01AEF1DF010
:103A30001DEF1DF0010E1EEF1DF0000E036E046A57
:103A40001200D00E056EFF0E066E03C007F004C014
:103A500008F0055007260650082208500AE10A0E11
:103A6000075CD8A036EF1DF039EF1DF0010E3AEFDC
:103A70001DF0000E036E046A1200500E0E6E010E51
:103A80000F6E180E106E080E116ED2EC19F00EC0EB
:103A900014F00FC015F014501510D8B452EF1DF0EB
:103AA00054EF1DF057EF1DF0010E58EF1DF0000E02
:103AB000120003500502F3CF07F0F4CF08F00350D3
:103AC0000602F350082604500502F350082607C0EA
:103AD00003F008C004F01200948C948E190EAF6E9F
:103AE000AC8EAC8AAB88AB8EF28EF28C9D8A9D98A0
:103AF0001200036E9EA87FEF1DF081EF1DF07AEF9C
:103B00001DF003C0ADFF1200286E756C6C29001803
:073B1000081C080F08010862
:023B1800120099
:020000040020DA
:08000000FFFFFFFFFFFFFFFF00
:020000040030CA
:0E000000030C191EFF0380FF0FC00FE00F401E
:00000001FF
